:100000000C9434000C9446000C9446000C9446006A
:100010000C9446000C9446000C9446000C94460048
:100020000C9446000C9446000C9446000C94460038
:100030000C9446000C9446000C9446000C94460028
:100040000C9446000C9446000C9446000C94460018
:100050000C9446000C9446000C9446000C94460008
:100060000C9446000C94460011241FBECFEFD8E03C
:10007000DEBFCDBF21E0A0E0B1E001C01D92A13004
:10008000B207E1F70E9448000C94A3000C94000012
:100090008CE18AB980E28BB98BB18C618BB980E03D
:1000A00032E057E043E021E005C080E003C0822F4A
:1000B00001C0832F8230C9F1833009F441C08130FF
:1000C00059F04D99F2CF6FEF89EF90E06150804089
:1000D0009040E1F700C000004D99E9CF8BB1837EDD
:1000E0008BB980910001811103C0209300010CC0E5
:1000F000813019F44093000107C0833019F4509304
:10010000000102C0109200019BB180910001877034
:10011000880F880F892B8BB96FEF89EF90E06150C2
:1001200080409040E1F700C000004D9BC2CF6FEFD0
:1001300089EF90E0615080409040E1F700C00000FE
:0A0140004D99BFCFFDCFF894FFCF1B
:00000001FF
